:020000040800F2
:10000000100A00204D0200084716000811150008CC
:1000100045160008430400080B1900080000000002
:100020000000000000000000000000004B16000867
:100030004504000800000000491600084D1600089D
:1000400067020008670200086702000867020008EC
:1000500067020008670200086702000867020008DC
:1000600067020008670200086702000867020008CC
:1000700067020008670200086702000867020008BC
:1000800067020008670200086702000867020008AC
:10009000670200086702000867020008670200089C
:1000A000670200086702000867020008670200088C
:1000B000670200086702000867020008670200087C
:1000C000670200086702000867020008670200086C
:1000D000670200086702000867020008670200085C
:1000E000670200086702000867020008670200084C
:1000F000670200086702000867020008670200083C
:10010000670200086702000867020008670200082B
:10011000670200086702000867020008670200081B
:10012000670200086702000867020008670200080B
:1001300067020008670200086702000867020008FB
:1001400067020008670200086702000867020008EB
:1001500067020008670200086702000867020008DB
:1001600067020008670200086702000867020008CB
:10017000670200086702000867020008000000002C
:1001800067020008670200086702000867020008AB
:10019000670200086702000867020008670200089B
:1001A00067020008670200086702000800F002F812
:1001B00000F03CF80AA090E8000C82448344AAF1C5
:1001C0000107DA4501D100F031F8AFF2090EBAE8C3
:1001D0000F0013F0010F18BFFB1A43F0010318477B
:1001E0004418000064180000103A24BF78C878C191
:1001F000FAD8520724BF30C830C144BF04680C602D
:10020000704700000023002400250026103A28BF74
:1002100078C1FBD8520728BF30C148BF0B60704778
:100220001FB501F0EDFB1FBD10B510BD00F0CFF8FC
:100230001146FFF7F5FF01F079FB00F0EDF803B48C
:10024000FFF7F2FF03BC00F0F5F800000948804713
:1002500009480047FEE7FEE7FEE7FEE7FEE7FEE7A8
:10026000FEE7FEE7FEE7FEE704480549054A064BC0
:10027000704700002D170008AD0100081004002091
:10028000100A0020100600201006002053EA020C7D
:1002900000F069802DE9F04B4FF00006002B1FBFE6
:1002A000B3FA83F503FA05F424FA05F65E4012BFAB
:1002B0001643B2FA82F502FA05F4C5F120051EBF15
:1002C00022FA05FC44EA0C04203556EA044C4FEAB5
:1002D000144418BF641C4FF000084FF0000990420E
:1002E00071EB030C39D3002919BFB1FA81F701FA78
:1002F00007F6B0FA80F700FA07F6C7F120071EBF2D
:1003000020FA07FC46EA0C062037B6FBF4FCA7EB04
:100310000507103F07F01F0BCBF120060CFA0BFB73
:100320002CFA06F644BFB3460026202FA4BF5E4633
:100330004FF0000B5BEA060C08BF4FF0010B19EB06
:100340000B09ABFB027C48EB0608C01B06FB02CC8A
:100350000BFB03CC71EB0C01C1E70B460246414697
:100360004846BDE8F08B13B54FF000004FF0000198
:10037000AFF30080BDE81C4070474FF0000200B5AD
:10038000134694469646203922BFA0E80C50A0E8B8
:100390000C50B1F12001BFF4F7AF090728BFA0E866
:1003A0000C5048BF0CC05DF804EB890028BF40F832
:1003B000042B08BF704748BF20F8022B11F0804F74
:1003C00018BF00F8012B704770477047704775469B
:1003D00000F02CF8AE4605006946534620F00700B1
:1003E000854618B020B5FFF73FFFBDE820404FF02D
:1003F00000064FF000074FF000084FF0000B21F00F
:100400000701AC46ACE8C009ACE8C009ACE8C009DB
:10041000ACE8C0098D46704710B50446AFF30080C4
:100420002046BDE81040FFF70ABF000000487047B3
:10043000B003002001491820ABBEFEE726000200F1
:100440007047FEE770470000F0B500231A464FF0F2
:10045000004544F2F45600BF016903EB830401EB4D
:10046000C4010A604A608A60CA600A620D604A621A
:100470004E604F6827F000474F6000EB8307032B67
:10048000B96406D24FF0280C07690CEBC4043C4455
:1004900000E00469CC605B1C042BDDD3C2650266FE
:1004A0008266C26682650169006800F58050C1609D
:1004B000F0BD70B5A4B00024012506468DF8284093
:1004C0008DF804501494A8038DF8564005908DF8CB
:1004D000105002948DF85440C0108DF811508DF8D2
:1004E0001F408DF8204006908DF81E508DF80F406B
:1004F00009948DF81C4012948DF84C408DF85540AD
:100500006946304600F082F88DF881508DF88040C1
:100510008DF8824028041B908DF8685080011F9050
:100520008DF870508DF8885040128DF871501E94DF
:100530001D908DF87250239421948DF8895019A93B
:100540003046199400F002F824B070BD70B50C4626
:100550000168054601F5805188692B4A1040227BCD
:10056000EAB30022637B920642EA4362637FBBB335
:100570005FF0000342EA0352A37B42EA43526369FD
:100580001A43237F42EAC312A37F42EA8312236AFB
:100590001A4394F8243042EA830202438A612868AD
:1005A00000F580508669012000F0ACF8286800F55D
:1005B00080508661A169A06822790843216941EAD7
:1005C0004261084394F8251040EAC110A16A40EA4C
:1005D00081002168084340F40001286801E00FE031
:1005E00010E000F580500160286800F58050046834
:1005F000012000F087F8286800F58050046070BD85
:100600000122AFE70123B5E7233FDEF870B50268AA
:1006100005460C4610683A49237C0840A168002B27
:1006200063D0002341EAC351637C002B5FD00023D9
:10063000E67F9B0543EA0643194363691943A37F99
:10064000F3B3002341EA4331237F41EA0331A36935
:100650001943237941EA832194F820308BB3002396
:1006600041EA4321E37B41EAC311636A194394F8E9
:10067000283041EA0311014311602868066801200F
:1006800000F040F8286806602A6890694FF64171CA
:100690000840A36C216D41EA034194F84C3063B3E8
:1006A000002394F85560DB01012E00D0002643EAB8
:1006B000C603194394F85630012B00D0002301E003
:1006C00017E018E041EA830194F85430012B00D080
:1006D000002341EA430101439161286884690120B4
:1006E00000F010F82868846170BD01239AE70123A7
:1006F0009EE70123A6E70123B2E70123D1E700002B
:100700000F8120FF70B5044600F02EFA0546601CEC
:1007100002D004480078044400F026FA401BA042AE
:10072000FAD370BD10000020F8B5040003D0D4F84F
:10073000840010B107E00120F8BD2320C4F8840034
:10074000204600F07DF83B480025016841F48041D7
:100750000160006800F4804000903748016821F48F
:10076000000101600168A26811430160006820680F
:1007700000F58050016841F00101016000F0F4F9DA
:1007800006464FF4FA770BE000F0EEF9801BB84212
:1007900006D90420C4F88800E020C4F88400CAE721
:1007A000206800F580500068C007EDD12046FFF7B3
:1007B00080FE0021E06801EB810200EBC2000560D1
:1007C00045608560C56004EB81039861036843F46C
:1007D00080130360032905D22826E36806EBC202D2
:1007E0001A4400E0E268C260026842F4400202601B
:1007F000491C0429DED3A5622068E16800F5805019
:1008000001612046FFF720FE60680C4A8188116470
:100810000178C37841EA0361837840781B0443EA96
:10082000002001435164C4F888501020C4F88400AB
:100830000020F8BD443802400438014000800240E6
:10084000F0B587B0044614216846FFF796FD2D49A0
:100850002068884253D12C480024016841F000717F
:100860000160016801F000710591016841F080614B
:100870000160016801F080610591016841F000614B
:100880000160016801F000610591016841F0040117
:100890000160016801F004010591016841F0010166
:1008A0000160016801F001010591016841F0020158
:1008B00001600068022500F0020005903220CDE9B9
:1008C000000502AA03260B2782E8D00069460F48DC
:1008D00000F022F88620CDE9000502AA694682E8E8
:1008E000D0000B4800F018F84FF46050CDE9000537
:1008F00002AA694682E8D000064800F00DF807B069
:10090000F0BD000000800240303802400008024084
:1009100000000240000402402DE9F84FDFF8F8A182
:100920000022012403254FF00F090AF1040BAAF15C
:10093000040E00BF0B6804FA02F63340B34270D1D4
:100940000F7907F00307012F01D0022F16D1876816
:100950004FEA420805FA08FC27EA0C07D1F80CC058
:100960000CFA08FC4CEA070CC0F808C04768B7430B
:100970000E79C6F3001696403E4346600E79F64364
:10098000B6070AD0C7684FEA420C05FA0CF6B7431F
:100990008E6806FA0CF63E43C6600E7906F0030632
:1009A000022E10D1D60800EB8608D8F82060570731
:1009B0004FEAD76C09FA0CF7BE430F6907FA0CF738
:1009C0003743C8F8207006684FEA420C05FA0CF766
:1009D000BE430F7907F0030707FA0CF737430760A8
:1009E0004E6816F4403F1CD04C4E376847F48047A1
:1009F0003760366822F0030706F480460096484EBA
:100A000007EB060CDCF8086897073F0F09FA07F8B0
:100A100026EA0806DFF80C81404503D14FF00008B4
:100A200041E072E0DFF80081404502D14FF001085B
:100A300039E0DFF8F880404502D14FF0020832E09B
:100A4000DFF8EC80404502D14FF003082BE0DFF8DF
:100A5000E480404502D14FF0040824E0DFF8D8805C
:100A6000404502D14FF005081DE0DFF8D080404539
:100A700002D14FF0060816E0DFF8C480404502D1ED
:100A80004FF007080FE0DFF8BC80404502D14FF07F
:100A9000080808E0DFF8B080404502D14FF00908AF
:100AA00001E04FF00A0808FA07F848EA0608CCF80F
:100AB0000888DAF800605746D1F804C09E435FEA20
:100AC000CC2C00D51E433E60DBF800605F46D1F8B9
:100AD00004C09E435FEA8C2C00D51E433E60DEF8C6
:100AE00000607746D1F804C09E435FEA8C3C00D595
:100AF0001E433E60084F083F3E68D1F804C09E4345
:100B00005FEACC3C00D51E433E60521C102AFFF425
:100B100011AFBDE8F88F0000083C014044380240A6
:100B20000030014000000240000402400008024082
:100B3000000C024000100240001402400018024065
:100B4000001C02400020024000240240426921EAC9
:100B500002030A4043EA0241816170470AB18161A0
:100B600070470904FBE700000148806870470000F7
:100B700010000020024881680278114481607047AB
:100B8000100000200B4810B5016841F400710160AD
:100B9000016841F480610160016841F48071016085
:100BA000032000F061F80F2000F006F800F024F8B0
:100BB000002010BD003C024070B50D4D04464FF4BE
:100BC0007A712878B1FBF0F00A490968B1FBF0F0BE
:100BD00000F036FB48B9102C07D200222146501EE7
:100BE00000F022F800206C6070BD012070BD000094
:100BF000100000201C0000200A4808B5016841F4DC
:100C000080410160006800F4804000900548001FAA
:100C1000016841F080510160006800F08050009050
:100C200008BD000044380240F0B40E4B1B680C466F
:100C3000C3F30223C3F10705042D00D90425191DB0
:100C4000072901D2002300E0DB1E012606FA05F188
:100C5000491E214099409E40761E16403143F0BC0B
:100C600000F054BE0CED00E0064900F007020868F1
:100C70004FF6FF03184040EA0220034A1043086081
:100C8000704700000CED00E00000FA052DE9F84384
:100C90001748016841F0805101600068154F00F06D
:100CA0008050012600903E64FFF75EFF05464FF43A
:100CB0007A78114C05E000BFFFF756FF401B404516
:100CC0000DD86068C003F7D57E64FFF74DFF054679
:100CD000464607E0FFF748FF401BB04202D9032019
:100CE000BDE8F88360688003F4D50020F8E70000D1
:100CF0004038024000000E42007000402DE9F047ED
:100D00000E46050065D0DFF81481D8F80000F7B270
:100D100000F00F00B04207D288F80070D8F8000049
:100D200000F00F00B04254D128683D4C810712D525
:100D3000400703D5206840F4E05020602878000781
:100D400003D5206840F4604020602068A96820F046
:100D5000F000084320602878C0072DD0304968682B
:100D60000839012812D0022813D0032811D00968AD
:100D7000890700292DDA216821F003010143216050
:100D8000FFF7F2FE814641F2883A0EE009688903D6
:100D9000EFE709688901ECE7FFF7E6FEA0EB090140
:100DA000514502D90320BDE8F0872068696800F04A
:100DB0000C00B0EB810FEFD1D8F80010404601F0E5
:100DC0000F01B14207D90770006800F00F00B04270
:100DD00001D00120E7E72878400705D52068E968B9
:100DE00020F4E050084320602878000706D52068EA
:100DF000296920F4604040EAC100206000F038F822
:100E00002168084AC1F30311515CC84006490860D3
:100E100006480068FFF7D0FE0020C4E7003C02400F
:100E2000083802400A1A00081C00002014000020A4
:100E30000448054900680968044AC1F38221515CED
:100E4000C84070471C000020083802401A1A0008E9
:100E50000448054900680968044AC1F34231515CFD
:100E6000C84070471C000020083802401A1A0008C9
:100E7000154810B5006810F00C02144813D014493E
:100E8000042A0FD0082A0ED10F4C241F2268236891
:100E900002F03F025B0207D52068C0F38810A0FB78
:100EA000010106E0084610BD2168C1F38811A1FBCD
:100EB00000010023FFF7EAF92168C1F30141491C51
:100EC0004900B0FBF1F010BD083802400024F400E6
:100ED00040787D012DE9F84F04006ED02078DFF8CE
:100EE0004C93C007A9F104054AD009F10400016838
:100EF000C1F38101012908D00068C0F381000228F4
:100F00000AD1D9F80000400206D52868800337D5F9
:100F100060680028E1D033E06068B0F5803F10D011
:100F2000B0F5A02F286810D020F480302860286801
:100F300020F4802028606068A8B1FFF715FE0646FF
:100F40000DE0286840F48030F4E740F48020286009
:100F5000F7E700BFFFF708FE801B642873D82868F6
:100F60008003F7D50CE0FFF7FFFD064605E000BF64
:100F7000FFF7FAFD801B6428F0D828688003F7D4B7
:100F80002078DFF8AC8280074FF0000A3ED5A748F2
:100F9000001D016811F00C0F08D00068C0F381003B
:100FA00002280BD1D9F80000400207D42868800736
:100FB00016D5E068012800D112E033E1E068B8B14D
:100FC0000120C8F80000FFF7CFFD064605E000BF8E
:100FD000FFF7CAFD801B0228C0D828688007F7D514
:100FE0002868216920F0F80040EAC10028600DE07F
:100FF000C8F800A0FFF7B8FD064604E0FFF7B4FD0F
:10100000801B02281FD828688007F7D420780007A3
:1010100022D5864F87486169703771B1012101601F
:10102000FFF7A2FD064604E0FFF79EFD801B0228A5
:1010300009D838688007F7D50EE0C0F800A0FFF7A0
:1010400093FD064605E082E0FFF78EFD801B022837
:101050007DD838688007F7D42078400768D5DFF856
:10106000CCB100270BF13C0BDBF80000C0000BD427
:10107000DBF8001041F08051CBF80010DBF80000E5
:10108000012700F0805000906B4E3068C00510D4EE
:10109000306840F480703060FFF766FD009005E036
:1010A000FFF762FD0099401A022850D83068C00549
:1010B000F6D55E4EA0686C3601280FD00528306842
:1010C00010D020F001003060306820F00400306063
:1010D000A068B8B1FFF748FD00900FE0306840F01D
:1010E0000100F4E740F004003060F7E7FFF73CFD53
:1010F0000099411A41F28830814266D830688007F1
:10110000F4D50EE0FFF730FD009007E0FFF72CFD6F
:101110000099411A41F28830814256D830688007E0
:10112000F4D42FB1DBF8001021F08051CBF800107F
:10113000A069C8B33D49091D0968C1F381010229AD
:101140004AD00228504607D0C8F8600000E03CE0D2
:10115000FFF70AFD04463BE04746C8F86000FFF78A
:1011600003FD064605E000BFFFF7FEFC801B0228DA
:101170002BD828688001F7D4D4E907010843A16A75
:101180002E4A490802EB0141626A41EA8211084392
:1011900094F82C1040EA0161C9F80010012038666B
:1011A000FFF7E2FC044606E03EE000BFFFF7DCFC90
:1011B000001B022809D828688001F7D534E000BF59
:1011C000FFF7D2FC001B022802D90320BDE8F88FEC
:1011D00028688001F4D427E00128F7D0D9F800006E
:1011E000E26900F4800191421CD1226A00F03F01C3
:1011F000914217D147F6C071626A0140B1EB821F7C
:1012000010D1A26A4FF0FF3300F4403103EB5202D9
:10121000B1EB024F06D194F82C1000F07060B0EBE7
:10122000016F01D00120D1E70020CFE70438024050
:1012300000004742800E4742007000400000FFFF60
:1012400010B5401EB0F1807F01D3012010BD4FF0DA
:10125000E02460610F21601700F058FB0020A061BE
:1012600007202061002010BD70B5040004D094F860
:101270004100002510B106E0012070BD84F8405007
:10128000204600F023F8242084F841002068C1683B
:1012900021F40051C160204600F078FA206801690D
:1012A00021F4904101612068416921F02A014161E6
:1012B0002068C16841F40051C1606564202084F851
:1012C000410084F842006563002070BD2DE9F043C1
:1012D00087B0044614216846FFF74FF85849DFF8F5
:1012E0005CC123680024564A1039022603250827CA
:1012F0005448DFF85491634529D1136843F48013AF
:101300001360126802F4801205920A6842F0040227
:101310000A600A6802F0040205920A6842F00802B4
:101320000A60096802AB01F0080105918114CDE95A
:10133000001683E8B0006946FFF7EEFA0420CDE915
:10134000000602AB694683E8B00048461AE0DFF8C1
:10135000FCC063451BD1106840F00040106010686D
:1013600000F000400590086840F010000860086830
:10137000CDE9005600F01000CDE90470694634480C
:10138000CDE90245FFF7C8FA07B0BDE8F083DFF802
:10139000C4804FF0070C434515D1106840F400306D
:1013A0001060106800F400300590086840F00800F4
:1013B00008600868694600F0080005906020CDE9E3
:1013C0000006484618E0DFF89080434518D11368BE
:1013D00043F480231360126802F4802205920A68A5
:1013E00042F004020A60096801F0040105914FF41B
:1013F0004061CDE90016694602AB83E83010C1E7D1
:10140000164A9342C0D10E4A121D136843F02003BE
:101410001360126802F0200205920A6842F004028A
:101420000A60096802AA01F004010591C021CDE912
:10143000001682E8B0006946A4E7000000500040B2
:101440004038024000080240000C0240007C00408E
:1014500000100240004400400048004000140140D9
:101460002DE9F84F044690F842009A4616460D467C
:10147000202802D00220BDE8F88FB5B1AEB100201F
:101480006064222184F842102063FFF76DFBA6857B
:101490008146E685A0684FF480582027404501D159
:1014A000206920B12E46002529E00120E3E700262F
:1014B00025E04B46002220212046CDF800A000F078
:1014C000EBF918B184F842700320D4E726B1A06884
:1014D00040451AD038B108E020684068C0F30800E1
:1014E00025F8020B08E0206978B12068406800F018
:1014F0007F0000BF06F8010BE08D401EE085E08D07
:101500000028D6D184F84270B5E720684068F1E73A
:10151000FEE70000164910B514480860154800247D
:10152000802204704270E1228270C47004714471A0
:1015300048604FF400008860A1F1A000C860A038A6
:10154000086140F2F45048610846FFF7EDF808B131
:1015500072B6FEE738210848FEF70FFF0648212142
:1015600001604FF44001C0E9044110BD0080024019
:101570009801002000000020200000202DE9F0410B
:1015800086B014216846FEF7F8FE2B480024016857
:1015900041F080010160016801F08001059101685E
:1015A00041F004010160016801F004010591016846
:1015B00041F001010160016801F00101059101683C
:1015C00041F002010160016801F00201059101682A
:1015D00041F008010160016801F00801059101680E
:1015E00041F0100101600068144F00F010004FF44A
:1015F00060450590012229463846FFF7AFFADFF82B
:1016000040804FF40046002231464046FFF7A6FADC
:1016100000950125CDE90154694638460394FFF74A
:101620007BF90096CDE90154694640460394FFF7E3
:1016300073F906B0BDE8F08130380240000C02407A
:1016400000000240FEE7FEE77047704710B50D4C02
:101650002088401C80B22080B0F57A7F0DD14FF4F5
:1016600000510948FFF772FA4FF6FF730822A11CD8
:101670000648FFF7F5FE00202080BDE81040FFF788
:1016800079BA000006000020000C02402003002070
:1016900070B592B030216846FEF76FFE14210CA899
:1016A000FEF76BFE1F480025016841F08051016084
:1016B000006800F0805011901B48016841F44041DF
:1016C00001600068022400F4404011900120009065
:1016D000000401908001CDE906400F260896D8202D
:1016E000CDE9090404200B906846FFF7F3FB08B12D
:1016F00072B6FEE7FFF7CAFA08B172B6FEE74FF41A
:10170000A050CDE90E504FF48050CDE90C641090FC
:1017100005210CA8FFF7F2FA002801D072B6FEE707
:1017200012B070BD403802400070004002480168AD
:1017300041F470010160704788ED00E001680C31F0
:1017400051E8002F22F4907241E80023002BF5D1DC
:101750000168143151E8002F22F0010241E8002312
:10176000002BF5D1016B012909D101680C3151E839
:10177000002F22F0100241E80023002BF5D1202198
:1017800080F84210002101637047000070B50446E4
:1017900000680169E26821F4405111430161216947
:1017A000A068E26908436169114308432168CA6877
:1017B00049F20C639A430243CA6020684169A269F6
:1017C00021F440711143416131492068884202D0BF
:1017D0003049884202D1FFF73BFB01E0FFF728FBCD
:1017E000E2690023192164253226B2F5004F6268B0
:1017F00028D0A0FB0101930F9200FEF747FD0146A0
:10180000B0FBF5F06FF01802504301EB800006EBDF
:101810000010B0FBF5F000F0F002B1FBF5F002EBC8
:101820000012B1FBF5F06FF01803584301EB800094
:1018300006EB0010B0FBF5F000F00F00216810443B
:10184000886070BDA0FB010192185B41FEF71EFD90
:101850000146B0FBF5F00201B1FBF5F06FF01803A3
:10186000584301EB800006EBC000B0FBF5F000F040
:10187000F80002EB4002B1FBF5F0584301EB8000A9
:1018800006EBC000B0FBF5F000F00700D6E7000063
:1018900000100140001401402DE9F8439846174616
:1018A0000D460446089E24E0701C22D0FFF75CF928
:1018B000A0EB0800B0421AD8CEB12068C168490731
:1018C00017D5802D15D0402D13D00168C9430907C5
:1018D0000FD401680025406800902046FFF72EFFD6
:1018E0000820606484F840500120BDE8F88303209C
:1018F000FBE72068006835EA000004D00020B84209
:10190000D2D00020F1E70120F9E7FEE70907090E30
:10191000002804DB00F1E02080F80014704700F09C
:101920000F0000F1E02080F8141D7047FFF72AF93E
:10193000FFF7AEFEFFF722FEFFF7ECFD2A4829492C
:101940004FF4E13500240160C0E901540C26C46065
:10195000C0E904468461C461FFF786FC08B172B631
:10196000FEE72148214948300160C0E90154C460C4
:10197000C0E904468461C461FFF776FC08B172B621
:10198000FEE719481A4990300160C0E90154C4606B
:10199000C0E904468461C461FFF766FC08B172B611
:1019A000FEE711481349D8300160C0E90154C46012
:1019B000C0E904468461C461FFF756FC08B172B601
:1019C000FEE70E480C490160C0E90154C460C0E95B
:1019D00004468461C461FFF747FC08B172B6FEE7B4
:1019E000FEE700000050004048020020007C00405C
:1019F00000440040004800400014014068030020FB
:101A00004FF04070E1EE100A704700000000000047
:101A1000000001020304060708090000000001029B
:101A200003040000441A0008000000202000000009
:101A3000E8010008641A000820000020F0090000F6
:101A40000402000800000000000000000000000088
:101A50000000000001000000100000000000000075
:041A60000024F4006A
:04000005080001AD41
:00000001FF
